:020000040800F2
:10000000600600206D0100087501000877010008F6
:10001000790100087B0100087D0100080000000054
:100020000000000000000000000000007F01000848
:10003000810100080000000083010008850100081C
:100040008701000887010008870100088701000870
:100050008701000887010008870100088701000860
:100060008701000887010008870100088701000850
:100070008701000887010008870100088701000840
:100080008701000887010008870100088701000830
:100090008701000887010008870100088701000820
:1000A0008701000887010008870100088701000810
:1000B0008701000887010008000000008701000890
:1000C0008701000800000000000000008701000810
:1000D0000000000087010008870100080000000000
:1000E00087010008870100088701000800F002F876
:1000F00000F02CF80AA090E8000C82448344AAF196
:100100000107DA4501D100F021F8AFF2090EBAE893
:100110000F0013F0010F18BFFB1A43F0010318473B
:10012000840500009405000000230024002500261B
:10013000103A28BF78C1FBD8520728BF30C148BF4A
:100140000B6070471FB51FBD10B510BD00F031F832
:100150001146FFF7F7FF00F0B7F900F04FF803B4CE
:10016000FFF7F2FF03BC00F057F800000948804792
:1001700009480047FEE7FEE7FEE7FEE7FEE7FEE789
:10018000FEE7FEE7FEE7FEE704480549054A064BA1
:100190007047000069040008ED00000860000020BE
:1001A0006006002060020020600200207047704757
:1001B0007047754600F02CF8AE4605006946534678
:1001C00020F00700854618B020B5FFF7DDFFBDE839
:1001D00020404FF000064FF000074FF000084FF0AE
:1001E000000B21F00701AC46ACE8C009ACE8C0093F
:1001F000ACE8C009ACE8C0098D46704710B50446AC
:10020000AFF300802046BDE81040FFF7A8BF000014
:10021000004870470000002001491820ABBEFEE7EF
:10022000260002007047002005E0002100E0491C84
:100230000529FCD9401C41F288329042F5D970471B
:100240002DE9F0410246002500260020002300246D
:10025000002791F803C00CF00F0591F803C00CF0D3
:10026000100CBCF1000F03D091F802C04CEA050558
:1002700091F800C0BCF1000F31D0146800202BE0D1
:100280004FF0010C0CFA00F3B1F800C00CEA0306C1
:100290009E4220D183004FF00F0C0CFA03F7BC43B1
:1002A00005FA03FC4CEA040491F803C0BCF1280FE2
:1002B00006D14FF0010C0CFA00FCC2F814C00AE0A1
:1002C00091F803C0BCF1480F05D14FF0010C0CFAB6
:1002D00000FCC2F810C0401C0828D1D31460B1F84B
:1002E00000C0BCF1FF0F34DD546800202EE000F1A7
:1002F000080C4FF0010808FA0CF3B1F800C00CEA42
:1003000003069E4221D183004FF00F0C0CFA03F735
:10031000BC4305FA03FC4CEA040491F803C0BCF1A9
:10032000280F05D100F1080C08FA0CF8C2F8148067
:1003300091F803C0BCF1480F07D100F1080C4FF051
:10034000010808FA0CF8C2F81080401C0828CED327
:100350005460BDE8F0810AB1016100E0416170477D
:1003600029B1064A92690243044B9A6104E0034AA8
:1003700092698243014B9A6170470000001002406D
:1003800010B500F001F810BD0CB5002001900090F0
:100390003348006840F480303149086000BF30487D
:1003A000006800F4003000900198401C0190009813
:1003B00018B90198B0F5A06FF1D12948006800F490
:1003C000003010B10120009001E000200090009862
:1003D000012843D12348006840F0100021490860FB
:1003E0000846006820F0070008600846006840F0F2
:1003F000020008601A484068194948600846406889
:1004000048600846406840F480604860084640689C
:1004100020F47C1048600846406840F4E8104860CA
:100420000846006840F08070086000BF0C48006813
:1004300000F000700028F9D00948406820F003005F
:10044000074948600846406840F00200486000BF25
:100450000348406800F00C000828F9D10CBD0000EA
:10046000001002400020024010B51348006840F020
:1004700001001149086008464068104908400E49CB
:100480004860084600680E4908400B490860084665
:10049000006820F4802008600846406820F4FE00D0
:1004A00048604FF41F008860FFF76AFF4FF000605C
:1004B0000449086010BD0000001002400000FFF871
:1004C000FFFFF6FE08ED00E008B500240121102032
:1004D000FFF746FF01210420FFF742FF012108201A
:1004E000FFF73EFF10208DF8030001208DF8020079
:1004F0004003ADF8000069462E48FFF7A1FE10202A
:100500008DF8030001208DF80200FF20ADF80000F7
:1005100069462948FFF794FE10208DF8030001205A
:100520008DF802004FF47040ADF800006946234892
:10053000FFF786FE012211032048FFF70CFF01227E
:1005400051031E48FFF707FF012291031B48FFF7E5
:1005500002FF0122D1031948FFF7FDFE002000F041
:100560002FF800224FF480511448FFF7F4FE20E0EA
:10057000012251030F48FFF7EEFE012280210E48B1
:10058000FFF7E9FEFFF74FFE00224FF40051094844
:10059000FFF7E1FE002280210748FFF7DCFEFFF7AE
:1005A00042FE204600F00CF8601CC4B2092C00DDAD
:1005B0000024DDE70010014000080140000C01406C
:1005C00010B504463248045D04F0010028B1012250
:1005D00011463048FFF7BFFE04E0002201212D48FC
:1005E000FFF7B9FE04F0020028B1012202212948D8
:1005F000FFF7B1FE04E0002202212648FFF7ABFE20
:1006000004F0040028B1012204212248FFF7A3FED0
:1006100004E0002204211F48FFF79DFE04F00800BB
:1006200028B1012208211B48FFF795FE04E00022B3
:1006300008211848FFF78FFE04F0100028B10122AE
:1006400010211448FFF787FE04E000221021114812
:10065000FFF781FE04F0200028B1012220210D487F
:10066000FFF779FE04E0002220210A48FFF773FE1D
:1006700004F0400028B1012240210648FFF76BFE3C
:1006800004E0002240210348FFF765FE10BD000092
:1006900098060008000801403F065B4F666D7D0725
:1006A0007F6F0000B4060008000000206006000014
:0406B0002801000815
:04000005080000ED02
:00000001FF
