:020000040800F2
:100000008006002089010008910100089301000882
:100010009501000897010008990100080000000000
:100020000000000000000000000000009B0100082C
:100030009D010008000000009F0100087D040008E9
:10004000A3010008A3010008A3010008A301000800
:10005000A3010008A3010008A3010008A3010008F0
:10006000A3010008A3010008A3010008A3010008E0
:10007000A3010008A3010008A3010008A3010008D0
:10008000A3010008A3010008A3010008A3010008C0
:10009000A3010008A3010008A3010008A3010008B0
:1000A000A3010008A3010008A3010008A3010008A0
:1000B000A3010008A301000800000000A30100083C
:1000C000A30100080000000000000000A3010008D8
:1000D00000000000A3010008A301000800000000C8
:1000E000A3010008A3010008A301000800F002F822
:1000F00000F03AF80AA090E8000C82448344AAF188
:100100000107DA4501D100F02FF8AFF2090EBAE885
:100110000F0013F0010F18BFFB1A43F0010318473B
:10012000C0070000E0070000103A24BF78C878C17B
:10013000FAD8520724BF30C830C144BF04680C60ED
:10014000704700000023002400250026103A28BF35
:1001500078C1FBD8520728BF30C148BF0B60704739
:100160001FB51FBD10B510BD00F031F81146FFF7E7
:10017000F7FF00F03BFA00F04FF803B4FFF7F2FF8F
:1001800003BC00F057F800000948804709480047C1
:10019000FEE7FEE7FEE7FEE7FEE7FEE7FEE7FEE737
:1001A000FEE7FEE704480549054A064B7047000094
:1001B0008D050008ED00000880000020800600206A
:1001C000800200208002002070477047704775460B
:1001D00000F02CF8AE4605006946534620F00700B3
:1001E000854618B020B5FFF7DDFFBDE820404FF091
:1001F00000064FF000074FF000084FF0000B21F011
:100200000701AC46ACE8C009ACE8C009ACE8C009DD
:10021000ACE8C0098D46704710B50446AFF30080C6
:100220002046BDE81040FFF7A8BF00000048704717
:100230002000002001491820ABBEFEE72600020086
:1002400070472DE9F04102460025002600200023DA
:100250000024002791F803C00CF00F0591F803C0AB
:100260000CF0100CBCF1000F03D091F802C04CEA66
:10027000050591F800C0BCF1000F31D014680020D2
:100280002BE04FF0010C0CFA00F3B1F800C00CEABF
:1002900003069E4220D183004FF00F0C0CFA03F7A7
:1002A000BC4305FA03FC4CEA040491F803C0BCF11A
:1002B000280F06D14FF0010C0CFA00FCC2F814C054
:1002C0000AE091F803C0BCF1480F05D14FF0010CD2
:1002D0000CFA00FCC2F810C0401C0828D1D31460EE
:1002E000B1F800C0BCF1FF0F34DD546800202EE0EF
:1002F00000F1080C4FF0010808FA0CF3B1F800C047
:100300000CEA03069E4221D183004FF00F0C0CFA39
:1003100003F7BC4305FA03FC4CEA040491F803C05C
:10032000BCF1280F05D100F1080C08FA0CF8C2F84E
:10033000148091F803C0BCF1480F07D100F1080CFC
:100340004FF0010808FA0CF8C2F81080401C082889
:10035000CED35460BDE8F0810246002093680B4084
:100360000BB1012000E0002070470AB1016100E0FC
:100370004161704729B1064A92690243044B9A6170
:1003800004E0034A92698243014B9A61704700007E
:100390000010024010B500F001F810BD0CB50020AF
:1003A000019000903348006840F480303149086083
:1003B00000BF3048006800F4003000900198401CF5
:1003C0000190009818B90198B0F5A06FF1D12948B3
:1003D000006800F4003010B10120009001E000201E
:1003E00000900098012843D12348006840F0100095
:1003F000214908600846006820F0070008600846A8
:10040000006840F0020008601A48406819494860D6
:100410000846406848600846406840F4806048608C
:100420000846406820F47C1048600846406840F464
:10043000E81048600846006840F08070086000BF1F
:100440000C48006800F000700028F9D009484068A6
:1004500020F00300074948600846406840F0020069
:10046000486000BF0348406800F00C000828F9D13C
:100470000CBD0000001002400020024010B53C48B6
:10048000008820BB4FF47A703949088039480078D9
:1004900050B1012280213848FFF767FF0122510344
:1004A0003648FFF762FF0AE0002280213248FFF75A
:1004B0005CFF00224FF400513048FFF756FF2D48F3
:1004C000007808B9012000E000202A490870284877
:1004D0000088401E26490880012211032848FFF7A2
:1004E00044FF012251032648FFF73FFF01229103F9
:1004F0002348FFF73AFF0122D1032148FFF735FFD8
:100500002049214A1278885C00F078F91E4800786A
:1005100028B900224FF480511948FFF726FF1A48E6
:100520000078012804D1002241031548FFF71DFF80
:1005300015480078022804D1002241031048FFF733
:1005400014FF11480078032805D100224FF4004120
:100550000B48FFF70AFF0C480078401C0A49087056
:1005600008460078032801DD0020087010BD000057
:10057000020000200000002000080140001001409F
:10058000000C0140050000200400002010B51348B5
:10059000006840F0010011490860084640681049B1
:1005A00008400E494860084600680E4908400B495B
:1005B00008600846006820F480200860084640680B
:1005C00020F4FE0048604FF41F008860FFF7E2FE51
:1005D0004FF000600449086010BD000000100240A8
:1005E0000000FFF8FFFFF6FE08ED00E01CB501215A
:1005F0001020FFF7BFFE01210420FFF7BBFE012101
:100600000820FFF7B7FE10208DF8070001208DF8B5
:1006100006004003ADF8040001A97148FFF711FE80
:1006200010208DF8070001208DF80600FF20ADF89E
:10063000040001A96B48FFF704FE10208DF80700A5
:1006400001208DF806004FF47040ADF8040001A9B8
:100650006548FFF7F6FD48208DF8030002208DF86D
:1006600002004020ADF8000069465F48FFF7E9FD51
:100670005E4800684FF47A72B0FBF2F1481EB0F1A8
:10068000807F00D31DE0481E4FF0E02250615017DC
:100690000F22002804DB13071F0E554B1F5408E0E0
:1006A00013074FEA136C534B00F00F073F1F03F87B
:1006B00007C000BF00204FF0E022906107201061CA
:1006C00000BF00254FF47A7095FBF0F04A4908709E
:1006D0000846007800EB4001C1EBC010A5EBC0005C
:1006E00084B2642094FBF0F0434948700846407897
:1006F00000EBC00101EB0010A4EB800084B20A20E3
:1007000094FBF0F03C4988700846807800EB80004C
:10071000A4EB4004CC7061E04FF47A7095FBF0F0EC
:10072000354908700846007800EB4001C1EBC01065
:10073000A5EBC00084B2642094FBF0F02E49487011
:100740000846407800EBC00101EB0010A4EB8000EC
:1007500084B20A2094FBF0F027498870084680781C
:1007600000EB8000A4EB4004CC700846007808B988
:100770000A2008702048407828B91F4800780A28C5
:1007800001D11D4948701C48807828B91A48407822
:100790000A2801D11849887000BF642608E040216A
:1007A0001148FFF7D9FD012800D0F6E7701EC6B248
:1007B000002EF4DC00BF642608E040210A48FFF761
:1007C000CBFD012800D1F6E7701EC6B2002EF4DC86
:1007D00042F20F70854201DA681C85B29CE7000086
:1007E0000010014000080140000C01400C000020F6
:1007F00000E400E018ED00E00500002010B504461C
:100800003248045D04F0010028B10122114630484D
:10081000FFF7ABFD04E0002201212D48FFF7A5FD05
:1008200004F0020028B1012202212948FFF79DFDB2
:1008300004E0002202212648FFF797FD04F004009F
:1008400028B1012204212248FFF78FFD04E0002295
:1008500004211F48FFF789FD04F0080028B1012298
:1008600008211B48FFF781FD04E0002208211848F9
:10087000FFF77BFD04F0100028B10122102114487D
:10088000FFF773FD04E0002210211148FFF76DFD12
:1008900004F0200028B1012220210D48FFF765FD5A
:1008A00004E0002220210A48FFF75FFD04F0400029
:1008B00028B1012240210648FFF757FD04E000223D
:1008C00040210348FFF751FD10BD0000D408000887
:1008D000000801403F065B4F666D7D077F6F00009B
:1008E0000009000800000020200000002801000886
:1008F00020090008200000206006000044010008D4
:100900000000E803000A0A0A0A00000000A24A04E4
:1009100000000000000000000102030406070809AF
:04000005080000ED02
:00000001FF
