:020000040800F2
:10000000C006002089010008670C0008810B000869
:10001000650C00088F020008750E00080000000043
:100020000000000000000000000000006B0C000851
:100030009102000800000000690C00086D0C000827
:10004000A3010008A3010008A3010008A301000800
:10005000A3010008A3010008A3010008A3010008F0
:10006000A3010008A3010008A3010008A3010008E0
:10007000A3010008A3010008A3010008A3010008D0
:10008000A3010008A3010008A3010008A3010008C0
:10009000A3010008A3010008A3010008A3010008B0
:1000A000A3010008A3010008A3010008A3010008A0
:1000B000A3010008A301000800000000A30100083C
:1000C000A30100080000000000000000A3010008D8
:1000D00000000000A3010008A301000800000000C8
:1000E000A3010008A3010008A301000800F002F822
:1000F00000F03AF80AA090E8000C82448344AAF188
:100100000107DA4501D100F02FF8AFF2090EBAE885
:100110000F0013F0010F18BFFB1A43F0010318473B
:10012000980F0000B80F0000103A24BF78C878C1BB
:10013000FAD8520724BF30C830C144BF04680C60ED
:10014000704700000023002400250026103A28BF35
:1001500078C1FBD8520728BF30C148BF0B60704739
:100160001FB51FBD10B510BD00F058F81146FFF7C0
:10017000F7FF00F091FE00F076F803B4FFF7F2FF0E
:1001800003BC00F07DF8000009488047094800479B
:10019000FEE7FEE7FEE7FEE7FEE7FEE7FEE7FEE737
:1001A000FEE7FEE704480549054A064B7047000094
:1001B000B90D0008ED000008C0000020C0060020B6
:1001C000C0020020C00200204FF0000200B513461C
:1001D00094469646203922BFA0E80C50A0E80C5067
:1001E000B1F12001BFF4F7AF090728BFA0E80C5018
:1001F00048BF0CC05DF804EB890028BF40F8042B11
:1002000008BF704748BF20F8022B11F0804F18BF7D
:1002100000F8012B7047704770477047754600F033
:100220002BF8AE4605006946534620F00700854688
:1002300018B020B5FFF7B6FFBDE820404FF000062C
:100240004FF000074FF000084FF0000B21F00701BE
:10025000AC46ACE8C009ACE8C009ACE8C009ACE801
:10026000C0098D46704710B50446AFF300802046A4
:10027000BDE81040FFF781BF004870475C000020D8
:1002800001491820ABBEFEE7260002007047FEE7DA
:10029000704700002DE9F84FDFF89C91002409F128
:1002A000040A0AF1040B23460F270BF1040EBBE0EE
:1002B0000125A5402A40AA4276D1DFF880C14E68C8
:1002C000A6EB0C0866452BD00DDC032E34D005DCE4
:1002D00036B3012E19D0022E2FD11BE0112E16D0CD
:1002E000122E2AD119E0B8F5881F19D006DCB8F50E
:1002F000803F15D0B8F5801F1FD111E0B8F5001F61
:100300000ED0B8F5041F18D10AE0CB6815E0CB6811
:100310001B1D12E0CB6808330FE0CB680C330CE0F8
:100320008B682BB1012B4FF0080303D0456104E02B
:10033000042302E0056100E00023FF2A01D80646FD
:1003400001E000F104064FEA840501D9A5F120057A
:10035000D6F8008007FA05FC28EA0C0803FA05F530
:1003600048EA0508C6F800804D68ED005BD5344DBD
:10037000AE6946F00106AE61AD6924F0030605F0F2
:10038000010500952F4D06EB050CDCF80850A6077B
:10039000360F07FA06F825EA0805DFF8AC80404575
:1003A00003D14FF0000810E03DE0DFF8A0804045A9
:1003B00002D14FF0010808E0DFF89480404502D1F7
:1003C0004FF0020801E04FF0030808FA06F848EA87
:1003D0000508CCF808804D68D9F80060ED034D465B
:1003E00001D5164300E096432E604D68DAF80060B0
:1003F000AD03554601D5164300E096432E604D6887
:10040000DBF80060ED025D4601D5164300E096433F
:100410002E604D68DEF80060AD02754601D51643CA
:1004200000E096432E60641C0A6832FA04F57FF4FB
:100430003FAFBDE8F88F000000040140000011103C
:10044000001002400000014000080140000C014083
:10045000001001408068084000D0012070470AB1B8
:10046000016170470904FBE701488068704700009C
:1004700008000020024881680278114481607047BA
:1004800008000020074810B5016841F01001016024
:10049000032000F067F80F2000F006F800F024F8C1
:1004A000002010BD0020024070B50D4D04464FF4F1
:1004B0007A712878B1FBF0F00A490968B1FBF0F0D5
:1004C00000F0DEFA48B9102C07D200222146501E57
:1004D00000F028F800206C6070BD012070BD0000A5
:1004E00008000020140000200C4808B5816941F084
:1004F00001018161816901F001010091C16941F04F
:100500008051C161C06900F080500090044841688A
:1005100021F0E06141F00071416008BD001002402F
:1005200000000140F0B40E4B1B680C46C3F30223DD
:10053000C3F10705042D00D90425191D072901D28F
:10054000002300E0DB1E012606FA05F1491E2140CA
:1005500099409E40761E16403143F0BC00F08BBCA3
:100560000CED00E0064900F0070208684FF6FF03B3
:10057000184040EA0220034A104308607047000018
:100580000CED00E00000FA052DE9F0470F460500EC
:1005900061D0434E306800F00700B84209D230689D
:1005A00020F0070038433060306800F00700B842A0
:1005B00051D128683B4C810712D5400703D56068AC
:1005C00040F4E06060602878000703D5606840F47C
:1005D000605060606068A96820F0F00008436060C7
:1005E0002878C00728D06868012810D02168022820
:1005F00010D0890700292EDA616821F00301014338
:100600006160FFF731FF804641F288390DE02168D3
:100610008903EFE78901EDE7FFF726FFA0EB08016B
:10062000494502D90320BDE8F0876068696800F099
:100630000C00B0EB810FEFD1306800F00700B8423A
:100640000BD9306820F0070038433060306800F084
:100650000700B84201D00120E5E72878400705D51A
:100660006068E96820F4E06008436060287800076B
:1006700006D56068296920F4605040EAC1006060D6
:1006800000F038F86168084AC1F30311515CC840B2
:100690000649086006480068FFF706FF0020C2E729
:1006A00000200240001002409F10000814000020AB
:1006B0000C0000200448054900684968044AC1F359
:1006C0000221515CC8407047140000200010024015
:1006D000AF1000080448054900684968044AC1F39E
:1006E000C221515CC8407047140000200010024035
:1006F000AF10000812A185B00FC98DE80F0014A03B
:10070000144A006804905168134801F00C03042B4C
:1007100010D0082B0ED1C1F38343C9031DF8030089
:100720000AD5516804AAC1F34041515C0A4A5043BA
:10073000B0FBF1F005B0704708494843FAE7000004
:1007400002030405060708090A0B0C0D0E0F101012
:10075000010200000010024000127A0000093D0072
:100760002DE9F84F040070D02078C04DC00749D063
:100770006868C0F38100012807D06868C0F3810071
:10078000022809D16868C00306D52868800339D5D6
:1007900060680028E7D035E06068B0F5803F0BD096
:1007A00010B1B0F5A02F11D0286820F48030286057
:1007B000286820F4802002E0286840F48030286017
:1007C000606890B1FFF750FE06460AE0286840F4E2
:1007D00080202860F0E700BFFFF746FE801B6428FA
:1007E00073D828688003F7D50CE0FFF73DFE064676
:1007F00005E000BFFFF738FE801B6428F0D82868AA
:100800008003F7D420789A4E80074FF001094FF00B
:10081000000839D5686810F00C0F07D06868C0F37D
:100820008100022809D16868C00306D428688007BF
:1008300014D52069012808D110E02069B0B1C6F8AC
:100840000090FFF711FE074605E00AE1FFF70CFEF6
:10085000C01B0228C4D828688007F7D528686169BA
:1008600020F0F80040EAC10028600DE0C6F80080E2
:10087000FFF7FAFD074604E0FFF7F6FDC01B02286C
:1008800023D828688007F7D4207800072CD579482A
:10089000A169D9B1C0F80090FFF7E6FD074604E072
:1008A000FFF7E2FDC01B02280FD8686A8007F7D562
:1008B00071484FF4FA510068B0FBF1F0009000BFAE
:1008C0000098411E0091FAD20EE080E0C0F800804E
:1008D000FFF7CAFD074604E0FFF7C6FDC01B02286C
:1008E00075D8686A8007F7D42078400760D5E86932
:1008F0000027C00008D4E86940F08050E861E8694A
:10090000012700F0805000905C480168C90513D4AD
:100910000168834641F480710160FFF7A5FD8246BE
:1009200006E000BFFFF7A0FDA0EB0A0064284ED848
:10093000DBF80000C005F5D5E06801280AD008B151
:10094000052813D0286A20F001002862286A20F0C8
:10095000040002E0286A40F001002862E06841F2E9
:10096000883B98B1FFF780FD82460BE0286A40F093
:1009700004002862EEE700BFFFF776FDA0EB0A0156
:1009800059455AD8286A8007F6D50CE0FFF76CFD68
:10099000824605E0FFF768FDA0EB0A0159454CD8F7
:1009A000286A8007F6D41FB1E86920F08050E8611A
:1009B000E06988B36968C1F38101022944D0022843
:1009C000C6F8608004D0FFF74FFD044638E034E0FD
:1009D000FFF74AFD074604E0FFF746FDC01B02286B
:1009E0002BD828688001F7D4206AB0F5803F05D164
:1009F0006868A16820F4003008436860D4E9080101
:100A00000843696821F4741108436860C6F860906F
:100A1000FFF72AFD044606E025E000BFFFF724FDAE
:100A2000001B022809D828688001F7D51BE000BF09
:100A3000FFF71AFD001B022802D90320BDE8F88F3A
:100A400028688001F4D40EE00128F7D06868226A93
:100A500000F48031914204D1616A00F47010884240
:100A600001D00120EAE70020E8E700000010024082
:100A70000000424280044242140000200070004006
:100A800010B5401EB0F1807F01D3012010BD4FF0A2
:100A9000E02460610F21601700F0EDF90020A061F3
:100AA00007202061002010BD70B5040004D094F828
:100AB0003D00002510B106E0012070BD84F83C50D7
:100AC000204600F023F8242084F83D002068C16807
:100AD00021F40051C160204600F070F920680169DE
:100AE00021F4904101612068416921F02A014161AE
:100AF0002068C16841F40051C1602564202084F859
:100B00003D0084F83E00002070BD000030B585B087
:100B100000240094019402940394006815498842CB
:100B200025D11548816941F480418161816901F4D1
:100B300080410491816941F00401816180690F4D18
:100B400000F0040004904FF4007000900220019027
:100B50000320039069462846FFF79CFB2815CDE942
:100B600000040120029069462846FFF793FB05B078
:100B700030BD000000380140001002400008014074
:100B8000FEE700002DE9F04786B0002631480096C8
:100B9000019602960396816941F010018161816995
:100BA00001F010010491816941F0200181618169A6
:100BB00001F020010491816941F0040181618169A2
:100BC00001F004010491816941F0080181618069AB
:100BD000DFF8848000F008004FF4005404900022F5
:100BE00021464046FFF73BFCDFF870900022FF21D2
:100BF0004846FFF734FCDFF868A04FF47047002246
:100C000039465046FFF72BFC009401240225694623
:100C100040460194CDE90245FFF73CFBFF20CDE9BA
:100C2000000469464846CDE90245FFF733FBCDE9AC
:100C3000007469465046CDE90245FFF72BFB402082
:100C4000CDE90006694602945046FFF723FB06B043
:100C5000BDE8F0870010024000100140000801408C
:100C6000000C0140FEE7FEE7704770472DE9F047B2
:100C7000FFF700FC364C4FF400556088C8B94FF4BC
:100C80007A70608021783348334E29B10122802167
:100C9000FFF7E5FB012204E000228021FFF7DFFBE4
:100CA000002229463046FFF7DAFB207838B30020CF
:100CB000207060880122401E284E6080170339464C
:100CC0003046FFF7CCFB012229463046FFF7C7FB31
:100CD0004FF48048012241463046FFF7C0FB4FF4F5
:100CE0000049012249463046FFF7B9FB18486178B0
:100CF000001D405C00F084F9607810B106E001202E
:100D0000D6E7002239463046FFF7A9FB6078012874
:100D100004D1002229463046FFF7A1FB6078022863
:100D200004D1002241463046FFF799FB6078032842
:100D300004D1002249463046FFF791FB6078401C01
:100D4000C0B26070032801D900206070BDE8F08750
:100D5000000000200008014000100140000C01408C
:100D600030B58FB028216846FFF72EFA14210AA863
:100D7000FFF72AFA0121080400240491CDE90010AC
:100D8000CDE908040294022507956846FFF7E8FCC0
:100D900008B172B6FEE70F20CDE90A058020CDE943
:100DA0000C0400210AA80E94FFF7EEFB002801D0E6
:100DB00072B6FEE70FB030BD7047000070B5044654
:100DC00000680169E26821F4405111430161216921
:100DD000A0680843616908432168CA6841F20C634E
:100DE0009A430243CA6020684169A26921F44071B4
:100DF000114341611E492068884202D1FFF76AFC15
:100E000001E0FFF757FC00EBC00101EB0012606846
:100E100064218000B2FBF0F3B3FBF1F36FF018062E
:100E20007343B2FBF0F5B2FBF0F605EB830532231A
:100E300003EB0515B5FBF1F5B6FBF1F605F0F00592
:100E400005EB0615B2FBF0F6B2FBF0F0B0FBF1F0EB
:100E50006FF01802504306EB800003EB0010B0FB6C
:100E6000F1F0216800F00F002844886070BD000098
:100E700000380140FEE70907090E002804DB00F1F5
:100E8000E02080F80014704700F00F0000F1E0202F
:100E900080F8141D70470000FFF7F4FA52484FF431
:100EA0007A7400250068B0FBF4F0401EB0F1807F3A
:100EB00009D24FF0E02148614C4AF02082F8140D2D
:100EC0008D6107200861FFF74BFFFFF75BFE494884
:100ED000474E4FF416510660C0E901150C21C5605C
:100EE000C0E904518561C561FFF7DEFD08B172B646
:100EF000FEE7A0460025B5FBF8F03F4CC0B26FF00E
:100F00007C012070484305EBC00080B24FF0640ABA
:100F1000B0FBFAF1C9B261706FF01802514300EBF7
:100F2000810080B24FF00A09B0FBF9F1A17049428B
:100F300001EB810100EB4100E070B346DBF80000FB
:100F40000006FBD52A494120091D0860B5FBF8F0D1
:100F500010F0FF036FF07C0003FB00F005EBC00016
:100F600081B2B1FBFAF0C0B26FF0180200FB02F2DE
:100F700001EB82018EB24946B6FBF1F2D2B2237088
:100F8000C2F10007607007EB8707A27006EB470607
:100F9000E67000D1217018B920780A2800D161705C
:100FA0001AB960780A2800D1A170144E6427402134
:100FB0003046FFF74FFA0128F8D17F1E17F0FF07E0
:100FC000F5D13746642640213846FFF743FA012819
:100FD000F8D0761E16F0FF06F5D142F20F7085426A
:100FE000ACD26D1CADB2A9E7140000200FE000E008
:100FF000003801401800002004000020000C0140CF
:1010000070B52249224D0C5CE00701D0012200E0BE
:10101000002201212846FFF722FAA00701D501226C
:1010200000E0002202212846FFF719FA600701D5E7
:10103000012200E0002204212846FFF710FA2007D1
:1010400001D5012200E0002208212846FFF707FA17
:10105000E00601D5012200E0002210212846FFF71A
:10106000FEF9A00601D5012200E000222021284639
:10107000FFF7F5F9600601D5012200E000222846BD
:10108000BDE870404021FFF7EAB900009410000865
:10109000000801403F065B4F666D7D077F6F0000D3
:1010A0000000000000000001020304060708090018
:1010B0000000000102030400D81000080000002016
:1010C0001800000028010008F01000081800002097
:1010D000A8060000440100080000E8030A0A0A0A02
:1010E0000100000010000000000000000024F400D7
:04000005080000ED02
:00000001FF
